:020000040800F2
:10000000404B00209D3A0008890100088B01000840
:100010008F0100089301000897010008000000000C
:100020000000000000000000000000009B0100082C
:100030009D010008000000009F010008A1010008C8
:10004000B73A0008B73A0008B73A0008B73A0008CC
:10005000B73A0008B73A0008B73A0008B73A0008BC
:10006000B73A0008B73A0008B73A0008B73A0008AC
:10007000B73A0008B73A0008B73A0008B73A00089C
:10008000B73A0008B73A0008B73A0008B73A00088C
:10009000B73A0008B73A0008B73A0008B73A00087C
:1000A000B73A0008B73A0008B73A0008B73A00086C
:1000B000E50700084313000827130008B73A0008B3
:1000C000B73A0008B73A0008B73A0008B73A00084C
:1000D000B73A0008611200081B080008B73A000888
:1000E000B73A0008B73A0008B73A0008DFF80CD072
:1000F00007F024F90048004701010008404B0020A8
:1001000000F0BFF84FF4A06003F0DAFC02F084FFC7
:1001100002F09EFE02F006FF01F022F802F09CFFC2
:100120003C2002F05DFE05F0D3FA03F026FA03F05E
:10013000CEFB03F097FB43F6982001F0B2F80020C5
:100140000F4908604FF4967002F0BFFE02F0B5FD53
:100150004FF4FA61052002F04BFE10E001F07EFF43
:100160000848007848B100200649087002F0E3F81A
:10017000322002F0AAFE02F045FA02F049FEEDE755
:10018000A00121421A000020704700BFFEE700BF17
:10019000FEE700BFFEE700BFFEE77047704770470D
:1001A000704700000CB50020019000906C4800687A
:1001B00040F480306A49086000BF6948006800F474
:1001C000003000900198401C0190009818B90198E7
:1001D000B0F5A06FF1D16248006800F4003010B1B2
:1001E0000120009001E0002000900098012843D1F8
:1001F0005C48006840F010005A49086008460068F2
:1002000020F0030008600846006840F00200086023
:10021000534840685249486008464068486008466C
:10022000406840F4806048600846406820F47C10D4
:1002300048600846406840F4E81048600846006896
:1002400040F08070086000BF4548006800F0007012
:100250000028F9D04248406820F003004049486037
:100260000846406840F00200486000BF3C484068D3
:1002700000F00C000828F9D10CBD10B5FFF792FF73
:1002800010BD10B53648006840F0010034490860E0
:1002900008464068344908403149486008460068CB
:1002A000324908402E4908600846006820F4802042
:1002B00008600846406820F4FE0048604FF41F00C4
:1002C0008860FFF7DAFF4FF000602949086010BD31
:1002D00010B5002100200022214B5B6803F00C01C7
:1002E00021B1042906D0082928D107E0214B224C4E
:1002F000236027E01F4B204C236023E0184B5B68F2
:1003000003F47010164B5B6803F48032022303EB96
:10031000904022B9194B4343174C23600DE0104B1A
:100320005B6803F4003323B1144B4343124C236046
:1003300003E0104B4343104C236003E00D4B0E4C85
:10034000236000BF00BF064B5B68C3F303130C4C74
:10035000E15C094B1B68CB40074C236010BD0000DB
:1003600000100240002002400000FFF8FFFFF6FEF0
:1003700008ED00E000127A000000002000093D00B6
:100380000400002070B504460D460120FA490860BB
:100390000BE000BF8021F94804F02AF90028F9D0C9
:1003A00014F8011BF54804F0B5F82800A5F1010187
:1003B0008DB2EED100BF4021F04804F019F90028B9
:1003C000F9D00120EE4908700020EB49086070BDAB
:1003D00008B5EC490022EC4B1A800920EB4A128840
:1003E00041F288339A4223DA1DE0E94A125C8DF823
:1003F0000320E74B421C9A5C8DF80220821C9A5C19
:100400008DF80120C21C9A5C8DF800200099E14A09
:10041000DD4B1B8842F82310DB4A1288521CDA4B52
:100420001A80021D90B2D84A1288B2F5806FDCDBC8
:1004300008BD70B5D848007800287DD0D448007831
:1004400006287AD1D548007800287FD00020D349EB
:10045000087009250CE0CE48405DD149D14A128888
:100460008854D0480088401CCE490880681C85B25A
:10047000C6480088801FA842EDDCCB48007800B356
:100480000020C9490870002518E00020C6490870FE
:10049000C64BBD480288BF49C148001D05F096FB08
:1004A000C34A03C2C34BB8480288BA49BC48001DBE
:1004B00005F08CFBC04A03C2681C85B20A2DE4DB40
:1004C00044E0BE48007800B30020BC490870002515
:1004D00018E00020B9490870B44BAB480288AD4918
:1004E000AF48001D05F072FBB54A03C2B14BA648E8
:1004F0000288A849AA48001D05F068FBB14A03C25A
:10050000681C85B20A2DE4DB20E0A6480188A448D7
:1005100002F082FC0446A249A24A12888C54A148E7
:100520000088401C9F49088021129D489D4A1288DE
:1005300081549C48008801E01CE116E1401C994967
:100540000880084601889648FFF71CFF9E480078FF
:1005500070B18E48008841F28831884201DAFFF795
:1005600037FF002098490870012098490870FCE086
:1005700097480078002846D00020954908708448A4
:10058000C178884802880088401C864B18808448BF
:1005900081547F480179184602880088401C1880E1
:1005A0007F4881547A484178184602880088401C68
:1005B00018807B48815476488178184602880088E4
:1005C000401C18807648815418460188744802F00F
:1005D00023FC04467249734A12888C54714800887F
:1005E000401C7049088020126D496E4A1288885458
:1005F0006C480088401C6B490880084601886848A0
:10060000FFF7C0FEB1E07348007800286AD00020F0
:10061000704908705E48C178624802880088401CB2
:10062000604B18805E488154594801791846028809
:100630000088401C18805A48815455484178184613
:1006400002880088401C18805548815450488178A1
:10065000184602880088401C1880514881544C4834
:10066000C279184601880088401C18804C484254C2
:100670004748017A184602880088401C188048487C
:10068000815443484179184602880088401C1880EC
:10069000434881543E488179184602880088401CAE
:1006A00018803F488154184601883D4802F0B4FB49
:1006B00004463B493B4A12888C543A480088401C07
:1006C0003849088020123649364A128888543548FD
:1006D0000088401C33490880084601883048FFF7ED
:1006E00051FE42E03C480078A0B300203A4908702F
:1006F000274841782B4802880088401C294B1880E5
:100700002748815422488278184601880088401C76
:1007100018802348425418460188214802F07CFB87
:1007200004461F491F4A12888C541E480088401CEA
:100730001C49088020121A491A4A128888541948FC
:100740000088401C17490880084601881448FFF7B4
:1007500019FE0AE0FFE72148007830B100201F4968
:1007600008700B4840781E4908700020074908802F
:100770000949087070BD0000A00121420038014005
:10078000BE1300205C8FCD423E140020A613002033
:100790001D000020C0230020431400203614002038
:1007A00008180020341400209314002000005C433B
:1007B0001815002000808943201500209414002083
:1007C00008150020101500203814002037140020D0
:1007D0003A1400203B1400203D1400203C1400205B
:1007E0004414002010B50121880704F054FE98B18C
:1007F0000121880704F060FE00214FF0804004F0E2
:1008000081FB0120FE490870FFF713FE0120FD491E
:1008100008700020FC49088010BD10B540F2255139
:10082000FA4803F0FBFEF8B1F84803F077FEC4B2D3
:10083000F548008841F28831884215DAF448F249D7
:1008400009884454F0480088401CEF490880012181
:10085000880704F031FE00214FF0804004F0E6FDEF
:100860000121880704F04EFB10BD2DE9F0478AB046
:10087000064689460224162204A9484605F004F8D3
:10088000002524E005EB85002044001D04A9095C37
:1008900005EB85002044C01C04AA105C41EA00203E
:1008A0004DF8250005EB85002044801C04A9095C57
:1008B00005EB85002044401C105C41EA002A3DF80D
:1008C00025004AEA00404DF82500681CC5B2042DF9
:1008D000D8DB019806F09AFB07460022CD4B06F0C4
:1008E00007FBCD4A03C2029806F090FB07460022A0
:1008F000C84B06F0FDFAC94A03C2039806F086FB0E
:1009000007460022C34B06F0F3FAC54A03C204A906
:10091000601D085C38B90022C24BBF4903C906F00C
:1009200075FABD4A03C204A904F10A00085C38B98B
:100930000022BC4BB94903C906F068FAB74A03C2A2
:1009400004A904F10F00085C38B90022B54BB44982
:1009500003C906F05BFAB24A03C206EB4600C4B212
:10096000AD48D0E90010B04A02EBC402C2E9001061
:10097000AA48D0E90010AC4B621C03EBC202C2E9EA
:100980000010A748D0E90010A21C03EBC202C2E984
:1009900000100AB0BDE8F0877CB5A44903C9CDE9D1
:1009A0000001A34800788DF80000A248407AA149D0
:1009B000097A40EA01260A2E24DA162106FB01F004
:1009C00000F5807085B216229A490831284604F055
:1009D00015FF0A2002F079FA0621684602F01CFA97
:1009E0000446E0B28DF8060020128DF807000520BD
:1009F00002F06BFAF0B22946FFF737FF082168468C
:100A0000FFF7C0FC7CBD70B588B0182102A806F0C5
:100A100083F88648083000680190854800788DF892
:100A20000400844840798349097940EA01240A2C6A
:100A30001FDA162104FB01F000F5807086B2162241
:100A400002A9304604F020FF20128DF80800E0B221
:100A50008DF809001A2101A802F0DEF90546E8B276
:100A60008DF81E0028128DF81F001C2101A8FFF729
:100A700089FC08B070BD704710B56E4840796C496C
:100A8000087008460178002004F050FE684800789D
:100A90006849087008216748FFF774FC10BD3EB52F
:100AA000624A0C3207CA8DE8070000208DF8060064
:100AB00004F012FE8DF807000321684602F0ACF93D
:100AC0000446E0B28DF8080020128DF809009DF868
:100AD0000700574908700A216846FFF753FC3EBDDE
:100AE00010B554480079544908600846006800026F
:100AF000086050484079096808434F490860084633
:100B00000088C0F30721012004F010FE4A48017854
:100B1000022004F00BFE08214648FFF733FC10BD0D
:100B200010B544484079454908700846007804F0FB
:100B300053FD08213F48FFF725FC10BD1FB53B4979
:100B4000183103C9CDE90201394800788DF8080051
:100B50003848407A8DF800003648807A8DF80100D8
:100B60003448C0798DF802003248007A8DF80300CD
:100B70003048407B8DF804002E48807B8DF80500BE
:100B80002C48C07A8DF806002A48007B8DF80700B3
:100B9000684604F0F2FC062102A802F03DF9044682
:100BA000E0B28DF80E0020128DF80F00082102A887
:100BB000FFF7E8FB1FBD10B5012021490870032095
:100BC000204908801A4800781F490870032048709F
:100BD0000820887004F0F4FC10BD7CB51349203166
:100BE00003C9CDE90001124800788DF800001148D2
:100BF000807A1049497A40EA01240E48C07925E0FC
:100C00004314002042140020A6130020004400409A
:100C10001D0000200088C340A0140020A81400205C
:100C2000B01400200000F0BF70440020EC780008F1
:100C3000B7130020881500202C1400204414002035
:100C40003B140020341400200818002040EA04243B
:100C5000FE48007A40EA0424204604F051FC0621B4
:100C6000684602F0D9F80546E8B28DF80600281269
:100C70008DF8070008216846FFF784FB7CBD10B59E
:100C80000120F34908700320F2490880F2480078F7
:100C9000F2490870032048700420887004F055FC65
:100CA00010BD10B5E9494979E84A127941EA0220B4
:100CB00004F0DDFC0821E548FFF764FB10BD10B52A
:100CC0000120E74908700320E2490880E2480078E3
:100CD000E2490870032048700F20887004F0BBFCC4
:100CE00010BD10B50020DF4908700420D9490880E4
:100CF0000020DD490870D8480078D84908700520E0
:100D00004870002088708720C870002002F09CF98D
:100D1000D648007804F060FCC82002F0D6F800BF86
:100D2000D04800780028FBD00120CF49087004F09B
:100D300018FC10BD10B50020CA4908700420C54930
:100D40000880002002F080F9C3480078C349087089
:100D500005204870002088708820C8700020C24993
:100D6000087004F039FC0A2002F0AFF800BFBD485B
:100D700000780028FBD00120BB49087004F0F1FB8B
:100D800010BD10B5012002F05FF9142002F09DF8AB
:100D90000020B54908700420AE4908800020B14900
:100DA0000870AD480078AD490870052048700020F3
:100DB00088708920C8700020AB490870AB48007863
:100DC00004F00AFCC82002F080F800BFA5480078B3
:100DD0000028FBD00120A449087004F0C2FB10BD1C
:100DE00010B5002002F030F9142002F06EF8002057
:100DF0009C4908709C4908700420964908809648D0
:100E000000789649087005204870002088709A2064
:100E1000C8709648007804F0DFFBC82002F055F84F
:100E200000BF904800780028FBD001208E49087050
:100E300004F097FB10BD10B54FF400628749091DFF
:100E4000500004F0DBFC08218048FFF79BFA10BD3E
:100E500010B54FF400628149091D4FF4C05004F0F1
:100E6000CDFC08217948FFF78DFA10BD10B54FF47D
:100E700000627A49091D900004F0C0FC0821734803
:100E8000FFF780FA10BD10B57348007873490870F9
:100E900006204870002088709720C8704FF40062C8
:100EA000091D500004F0F0FC40F604016B4801F00D
:100EB000B3FF0446694981F80448201281F8050807
:100EC00040F606016548FFF75DFA10BD10B56248AF
:100ED00000786249087006204870002088709820C9
:100EE000C8704FF40062091D4FF4C05004F0CCFCF0
:100EF00040F60401594801F08FFF0446574981F834
:100F00000448201281F8050840F606015348FFF70F
:100F100039FA10BD10B550480078504908700620C5
:100F20004870002088709920C8704FF40062091D35
:100F3000900004F0A9FC40F60401484801F06CFF61
:100F40000446464981F80448201281F8050840F615
:100F500006014248FFF716FA10BD7CB5002544494A
:100F600003C9CDE900013C4800788DF8000000205D
:100F70003C4908703F48007860B900203D4908703E
:100F800001203D49087004F05AFB00BF3548007845
:100F90000028FBD03948058828128DF80300E8B2F4
:100FA0008DF804000521684601F036FF0446E0B2E2
:100FB0008DF8050020128DF8060007216846FFF71E
:100FC000E1F97CBD2DE9F04100270020254908709A
:100FD000012504242748007860B9002025490870BD
:100FE00001202549087004F02AFB00BF1D48007845
:100FF0000028FBD02248007850B1174800782149DA
:101000000870214801881F48FFF7BCF9BDE8F0814E
:10101000114800781B49087006204870002088702D
:101020009A20C870002648E0184951F8260018494F
:1010300005F0D5FD804606F00FF80546C5F30722FA
:101040002046611C8CB20F490A5423E08815002009
:101050003A14002034140020B71300200818002090
:101060003D140020421400203614002044140020B7
:101070001479000837140020381400203E14002092
:1010800039140020C833002040140020C023002061
:1010900000401C462046611C8CB2F6490D54280EB7
:1010A0002146621C94B2F34A5054C5F307422046CD
:1010B000611C8CB2EF490A54761CEF4800888642C6
:1010C000B2DB2146EB4801F0A7FE0746E94A601C67
:1010D00017543912A01C1154E849088081B21046F7
:1010E000FFF750F90120E649087000BF8EE71FB5F1
:1010F0000121022003F07BF8E248008800EB800029
:101100004FF6FF7101EA4000ADF8080041F61F40BC
:10111000ADF804000020ADF80A00ADF8060001A902
:10112000D94803F093FB0121D74804F0B1F901221B
:101130001146D54803F001FF1D208DF80000022064
:101140008DF8010003208DF8020001208DF80300C6
:10115000684602F0BAFC0021CB4803F0D3FE1FBD65
:1011600000B587B00121042003F034F80121880381
:1011700003F030F84FF40070ADF8180018208DF827
:101180001B0003208DF81A0006A9C04802F066FD76
:101190004FF48060ADF8180004208DF81B0006A9FC
:1011A000BA4802F05BFD4FF48070ADF818001020D3
:1011B0008DF81B0006A9B54802F050FD4FF4807170
:1011C000B24802F0FAFDB24803F068F8B14800688E
:1011D00002900020ADF81400ADF80C00ADF80E0040
:1011E0000C20ADF81200AC48007820B1012806D0E0
:1011F00002280ED108E00020ADF8100009E04FF4FD
:10120000C060ADF8100004E04FF48060ADF810004D
:1012100000BF00BF02A99E4803F083F825208DF887
:10122000040001208DF8050002208DF80600012041
:101230008DF8070001A802F048FC40F225519448BF
:1012400003F016FA012240F22551914803F001F90A
:1012500001218F4803F0F1F8FFF749FF07B000BD07
:1012600010B540F225518A4803F0D8F9C0B188483A
:1012700003F054F9C4B2894889490988445488481C
:101280000088401C8649088001217F4804F014F939
:1012900000217D4804F0CAF801217B4803F032FEAA
:1012A00010BD1FB504460121042002F0A0FF601EFE
:1012B00080B2ADF8080041F61F40ADF804000020F0
:1012C000ADF80A00ADF8060001A9764803F0BEFAB1
:1012D0000121744804F0DCF801221146714803F042
:1012E0002CFE1E208DF8000003208DF801008DF8E3
:1012F000020001208DF80300684602F0E6FB0121A0
:10130000684803F0FFFD1FBD10B50021042002F066
:101310006EFF00224121634803F00FFE0021614867
:1013200003F0F0FD10BD10B501215E4804F0B3F8E4
:10133000012805D15C49087001215A4804F0BCF825
:1013400010BD10B50121504804F0A5F860B101218D
:101350004D4804F0B1F800214B4803F0D3FD0120C3
:10136000524908605249087010BD10B5044601206A
:101370004E49086000BF8021454803F039F9002834
:10138000F9D02146424803F0C5F800BF402140484B
:1013900003F02EF90028F9D000204449086010BD60
:1013A0002DE9FC4104460D461646002000900190B0
:1013B00004EB440040F2B92101EB40078DF80140F5
:1013C00028128DF80200E8B28DF8030030128DF873
:1013D0000400F0B28DF8050006226946384604F094
:1013E0000DFABDE8FC812DE9FC41324903C9CDE984
:1013F0000001314800788DF800002848007A27491C
:10140000C97940EA0120C4B20A2C22DA2348807A42
:101410002249497A40EA01252048007B1F49C97AC0
:1014200040EA01266000254921F81050012000EB18
:10143000440021F810606000214921F8105001207B
:1014400000EB440021F81060324629462046FFF7A1
:10145000A7FF0621684601F0DFFC0746F8B28DF8C9
:10146000060038128DF8070008216846FEF78AFF4B
:10147000BDE8FC81C83300203E1400204014002049
:1014800039140020AE130020000400400008014081
:1014900000380140A8130020AC130020881500205C
:1014A000B0130020000800401A000020A0012142D3
:1014B000B2130020E0790008B7130020B814002010
:1014C000E014002010B5FE48C0788B2806D09C2878
:1014D00007D09E2808D09F280CD108E0FFF75CFABF
:1014E00008E0FFF77AFB05E0FFF728FB02E0FFF7D3
:1014F0007AFF00BF00BF10BD1CB5F24903C9CDE99A
:101500000001F14800788DF80000022002F005FA91
:101510000721684601F080FC0446E0B28DF8060021
:1015200020128DF8070008216846FEF72BFF1CBD2E
:1015300010B5E348C0788638192835D2DFE800F0C6
:101540000D10131619343434343434343434343400
:101550001C1F222528342B2E3100FFF78DFA24E0A2
:10156000FFF7BEFA21E0FFF766FC1EE0FFF770FC14
:101570001BE0FFF77BFC18E0FFF745FA15E0FFF7EB
:1015800082FC12E0FFF7A2FC0FE0FFF7C3FC0CE0C7
:10159000FFF718FD09E0FFF784FB06E0FFF7C0FA4C
:1015A00003E0FFF7A9FF00E000BF00BF10BDFEB5DC
:1015B000C44A283207CA8DE80700C34800788DF86E
:1015C0000000BF4844790A2C10DA04EB44004000C4
:1015D00000F2B92606220DF10301304604F054F959
:1015E00020128DF80300E0B28DF80400092168464E
:1015F00001F012FC0546E8B28DF8090028128DF8BA
:101600000A000B216846FEF7BDFEFEBD2DE9FF472F
:10161000AC4B08330FCB8DE80F00AB4800788DF84A
:10162000000001F0B2FF8246A84905F0D8FA8146D1
:1016300005F0F9FC85B202F054F88246A34905F0A2
:10164000CEFA814605F0EFFC87B201F0F4FF824646
:101650009E4905F0C4FA814605F0E5FC86B202F029
:1016600096F88246994905F0BAFA814605F0DBFC06
:101670001FFA80F828128DF80300E8B28DF80400F4
:1016800038128DF80500F8B28DF8060030128DF88A
:101690000700F0B28DF808004FEA28208DF8090005
:1016A00008F0FF008DF80A0000208DF80B000120E3
:1016B0008DF80C000D21684601F0AEFB0446E0B247
:1016C0008DF80D0020128DF80E000F216846FEF7F0
:1016D00059FEBDE8FF872DE9F0410446002213467C
:1016E0007B4903C905F0F8FC09D20022794B7849FF
:1016F00003C905F08BFB764A03C2002000E00120FD
:10170000A07000221346744903C905F0E5FC09D214
:101710000022704B704903C905F078FB6E4A03C282
:10172000002000E00120E071002213466B4903C94C
:1017300005F0D2FC09D20022664B684903C905F0C6
:1017400065FB664A03C2002000E0012020730022EE
:101750001346634903C905F0BFFC09D200225D4B63
:101760005F4903C905F052FB5D4A03C2002000E057
:101770000120607400225B4B554903C905F046FB0C
:10178000064605F07DFC0546280AE0702571280E06
:101790006071280CA0710022524B4F4903C905F01B
:1017A00035FB064605F06CFC0546280A207265727A
:1017B000280EA072280CE07200224A4B474903C948
:1017C00005F024FB064605F05BFC0546280A60731D
:1017D000A573280EE073280C20740022414B404969
:1017E00003C905F013FB064605F04AFC0546280A26
:1017F000A074E574280E2075280C60751622214609
:101800004FF4807003F0FAFFBDE8F08170B58AB044
:1018100000240225182101A805F07EF900BF24E06C
:1018200005EB8400001D2649095C05EB8400C01C03
:10183000234A105C41EA002007A941F8240005EB87
:101840008400801C1146095C05EB8400401C105C80
:1018500041EA002006B207A830F8240046EA00401A
:1018600007A941F82400601CC4B2032CD8DB002176
:10187000174A11605160079805F0B7FB164A03C27A
:10188000089805F0B2FB154A03C2099805F0ADFBB4
:10189000134A03C20022134B0F4903C905F028FB6A
:1018A0000D4A03C200220F4B0C4903C905F020FB6F
:1018B0000A4A03C200220B4B094903C914E0000085
:1018C00088150020C0790008B713002000002041CF
:1018D000981400200000F0BFA0140020A8140020DD
:1018E000B01400200088C34005F002FBFB4A03C28D
:1018F00001A8FFF7F0FE0AB070BD10B586B0142243
:10190000F74901A805F0EFF8F64800788DF80400D3
:10191000F548007AF54931F81000F5490880F24899
:10192000807AF44951F82000F3490860F0480088B3
:10193000F2490880F0480068F1490860EA48C07838
:101940008DF80B00E84800798DF80C00E6484079E6
:101950008DF80D00E44880798DF80E00E248C079DA
:101960008DF80F00E048007A8DF81000DE48407ACC
:101970008DF81100DC48807A8DF81200DA48C07AC0
:101980008DF81300D848007B8DF81400112101A8B0
:1019900001F042FA0446E0B28DF8150020128DF8ED
:1019A000160006B010BD10B5CF4880780A2802D0C6
:1019B0000C2806D102E0FFF7A0FF02E0FFF726FFA8
:1019C00000BF00BFC848C0789C280FD006DC0E2896
:1019D00018D0102813D09B2817D104E09D2808D0D8
:1019E0009E2812D108E0FFF7B8FA0EE0FFF747F99A
:1019F0000BE0FFF7E0F808E0FFF761F905E0FFF71B
:101A000005FE02E0FFF7D3FD00BF00BF10BD704729
:101A100010B5B548C078882810D004DC862807D0D7
:101A2000872814D107E089280BD09A280FD10BE022
:101A3000FFF7EDFF0BE0FFF754F908E0FFF77AF945
:101A400005E0FFF79EF902E0FFF7CAF900BF00BF0B
:101A500010BD1CB5A249443103C9CDE90001A1481C
:101A600000788DF8000003F0D2FD142001F02DFA6B
:101A7000A44800788DF803000421684601F0CCF9F1
:101A80000446E0B28DF8040020128DF8050006210E
:101A90006846FEF777FC1CBD1CB59149183903C98F
:101AA000CDE900018F4800788DF8000006216846D6
:101AB00001F0B2F90446E0B28DF8060020128DF86C
:101AC000070008216846FEF75DFC1CBD1FB5844970
:101AD000103903C9CDE90201824800788DF8080069
:101AE000062102A801F098F90446E0B28DF80E0034
:101AF00020128DF80F00082102A8FEF743FC3C20BD
:101B000001F0E3F97649083903C9CDE900017548C8
:101B100000788DF800000621684601F07DF9044642
:101B2000E0B28DF8060020128DF807000821684603
:101B3000FEF728FC1FBD1CB56949403903C9CDE932
:101B40000001684800788DF800000621684601F021
:101B500063F90446E0B28DF8060020128DF8070004
:101B600008216846FEF70EFC1CBD1CB55C494839CF
:101B700003C9CDE900015B4800788DF8000006211B
:101B8000684601F049F90446E0B28DF806002012DB
:101B90008DF8070008216846FEF7F4FB012001F0EC
:101BA000BCFE1CBD1CB54E49783903C9CDE9000106
:101BB0004C4800788DF800000621684601F02CF9A9
:101BC0000446E0B28DF8060020128DF807000821C7
:101BD0006846FEF7D7FB1CBD30B5A9B0002518211B
:101BE00002A804F099FF00241DE04748005DC0B141
:101BF000464800EBC400D0E9001018AA02EBC4026A
:101C0000C2E90010424800EBC400D0E9001008AA65
:101C100002EBC402C2E9001000203B490855681CD1
:101C2000C5B2601CC4B2082CDFDB002D10DD002122
:101C3000384A1160516029483749384B2A46CDE966
:101C4000001008A918A804F01DFD02A8FFF743FD25
:101C500029B030BD2DE9F04F87B03148007860B928
:101C600001203049087000202F49087003F0E7FC7C
:101C700000BF2D4800780028FBD001202B490870B8
:101C8000FFF72FF800BF294800780028FBD101207A
:101C900027490870FFF775F800BF2548007800282D
:101CA000FBD1002425460026374600221346214951
:101CB00003C905F011FA06D9002213461E4903C9CB
:101CC00005F00AFA40D800211C481D4AC2E900105C
:101CD00000201A491B4A03C246E00000B01400204D
:101CE00094790008B713002088150020C013002045
:101CF0002A140020D81300203014002028140020BB
:101D00002C140020441400208814002030440020AB
:101D10004814002098140020A8140020A0140020CB
:101D2000371400203814002042140020941400209E
:101D30009314002038150020401500200000F03FCB
:101D40005815002060150020FD48FE490CC803C945
:101D500005F0CEF8FC4A03C2FC48FD490CC803C993
:101D600005F0C6F8FB4A03C2FB48F7490CC803C993
:101D700005F04CF880468946F848F6490CC803C976
:101D800005F044F882468B46F5480CC84046494663
:101D900005F0BAF920D2F248F2490CC803C905F09F
:101DA000B3F919D2EE48EF490CC803C905F028F879
:101DB000CDE90201EA480CC84046494605F020F842
:101DC000CDE90001DDE9022305F092F8CDE9040137
:101DD00005F01AFD04460D46E3480CC85046594626
:101DE00005F092F920D2E048E0490CC803C905F09B
:101DF0008BF919D2DC48DD490CC803C905F000F89D
:101E0000CDE90201D8480CC85046594604F0F8FF05
:101E1000CDE90001DDE9022305F06AF8CDE904010E
:101E200005F0F2FC06460F4632463B4600204FF0D6
:101E3000804104F0EBFF22462B46CDE9040104F07B
:101E4000E2FF07B0BDE8F08F2DE9F04788B0064605
:101E50008946924600BFC64BD3E901021968DB6888
:101E600005AC0DC40491C34800788DF81000C0493A
:101E7000103103C9CDE90201BE4800788DF8080091
:101E80004FEA29208DF80A0009F0FF008DF80B00B9
:101E9000062102A800F0C0FF0446E0B28DF80E0053
:101EA00020128DF80F00FFF7D5FE07468846B2488E
:101EB00000EBC600C0E900780120B0498855002237
:101EC000AF4B3846414604F0A1FFCDE9000105F0D3
:101ED000D7F805464FEA2A208DF812000AF0FF00D5
:101EE0008DF81300280A8DF81700E8B28DF8180055
:101EF000280E8DF81900280C8DF81A000B2104A863
:101F000000F08AFF0446E0B28DF81B0020128DF825
:101F10001C000D2104A8FEF735FA322000F0D5FF91
:101F2000082102A8FEF72EFA322000F0CEFF08B0FA
:101F3000BDE8F0877FB500248D49383903C9CDE964
:101F400002018C4800788DF808008949303903C9AE
:101F5000CDE90001874800788DF8000000BF11E04E
:101F6000884800790121A1400840204140B1282043
:101F700000EB440204F108012046FFF765FF03E08F
:101F8000601CC4B2082CEBDB00BF7E48407900F037
:101F9000010020B1FFF720FEFFF704FE2CE0794896
:101FA0004079C0F3400038B37748007890B1002002
:101FB000754908700621684600F02EFF0546E8B214
:101FC0008DF8060028128DF8070008216846FEF7F4
:101FD000D9F911E001206C490870062102A800F02F
:101FE0001BFF0546E8B28DF80E0028128DF80F0091
:101FF000082102A8FEF7C6F96248C07800F0010087
:1020000010B1FFF7B2FD15E05E48C078C0F34000A4
:1020100010B1FFF790FD0DE05A48C078C0F3801072
:1020200010B1FFF753FD05E05648C078C00908B16C
:10203000FFF732FD7FBD10B55248807840B10328CC
:1020400002D0142807D102E0FFF774FF03E002E09A
:10205000FFF7FFFC00BF00BF10BD704710B54B4835
:10206000007801286AD147480078424909788842B7
:1020700042D144484078012817D04248407802288D
:1020800013D04048407803280FD03E4840780528B8
:102090000BD03C484078062807D03A4840780428BE
:1020A00003D038484078102827D136484078052892
:1020B00014D006DC01280ED0022809D003281AD13A
:1020C00010E0062811D00F280BD0102813D10FE0F4
:1020D000FFF7C3FF10E0FFF7AEFF0DE0FFF798FC3E
:1020E0000AE009E0FFF75FFC06E0FFF721FA03E0F2
:1020F000FFF7E8F900E000BF65E02248407881285A
:1021000017D020484078822813D01E484078832872
:102110000FD01C48407885280BD01A484078862874
:1021200007D0184840788F2803D016484078902868
:1021300049D114488078012831D029E065E00000B9
:1021400038150020181500205815002040150020D3
:1021500020150020601500202815002030150020D3
:1021600048150020081500205015002010150020EB
:1021700064790008B7130020304400208814002040
:102180000088C340881500201C000020B2130020E6
:10219000022808D003280AD0042810D10BE00B2015
:1021A000FC4908700BE00C20FA49087007E00D208C
:1021B000F849087003E00E20F649087000BF00BF20
:1021C0000020F5490870F5480078FF2814D1F3483D
:1021D0004078662810D1F1488078AA280CD1EF48C1
:1021E000C078BB2808D10021ED4802F08BFE00200A
:1021F000EC490870FEF753FC0020EB490870EB49EE
:102200000880E5490870EA49086010BDE34949794A
:10221000E24A127941EA0220E6490988884203D15C
:102220000021DC4A117002E00F21DA4A117000210E
:10223000D94A117070472DE9FC410746884615467A
:102240001E46DD4903C9CDE90001DC4800788DF860
:102250000000DB480078E8B9B5F52F7F02DAB6F563
:102260002F7F17DB0621684600F0D6FD0446E0B25A
:102270008DF8060020128DF807000120D049087063
:1022800008216846FEF77EF8142000F01EFE0020AC
:10229000CC490870B5F52F7F20DAB6F52F7F1DDA0F
:1022A000C8480078D0B900208DF80400062168469F
:1022B00000F0B2FD0446E0B28DF8060020128DF861
:1022C00007000020BE49087008216846FEF75AF84A
:1022D000142000F0FAFD0120BA490870BDE8FC8125
:1022E0002DE9FF5F04460D4600BFB7480CC82046E5
:1022F000294604F08BFD82468B46B4480CC8204624
:10230000294604F083FD804622462B4604F07EFDDC
:102310000646AF480CC8304604F0D1FC52465B4636
:10232000CDE9000104F0CBFCCDE90201DDE90201B9
:1023300004B0BDE8F09F2DE9FC5F00260022A54B0C
:10234000A54903C904F0BBFCA34A03C2A348008803
:10235000401EA2490880A2480068401EA0490860AB
:102360000846006828B99F4800680860022001F00C
:10237000D4FA9A480088002811DCFFF76BFC9A4ACF
:1023800003C2994903C9994A03C2974903C9FFF790
:10239000A7FF954A03C2964800889049088001F03B
:1023A000F4F89449009004F01AFC019004F03BFE0C
:1023B00087B201F096F98F49009004F010FC01906B
:1023C00004F031FE1FFA80F901F035F989490090D7
:1023D00004F005FC019004F026FE1FFA80F801F0DD
:1023E000D6F98449009004F0FAFB019004F01BFE3A
:1023F0001FFA80FA0022804B7C4903C904F006FDD5
:10240000CDE9000104F03CFE064600227B4B7649F4
:1024100003C904F0FBFCCDE9000104F031FE0446E1
:102420000022764B6C4903C904F0F0FCCDE90001B1
:1024300004F026FE05464FF46160B5FBF0F55F48F9
:1024400000786F4908701020487000208870C870AC
:1024500008710B20487116208871200AC8710C720F
:10246000200E4872200C8872280AC8720D73280E3C
:102470004873280C8873594800880012C87357485D
:1024800000780874381248748F744FEA2920C87491
:1024900081F814904FEA2820487581F816804FEA99
:1024A0002A20C87581F818A0300A48768E76300E3A
:1024B000C876300C08771D21514800F0ADFC8346EA
:1024C0004F4981F81DB04FEA2B20887753464A4682
:1024D00041463846FFF7AFFE1F214948FDF752FF3E
:1024E000BDE8FC9F2DE9F04701F04FF882464149D5
:1024F00004F075FB814604F096FD85B201F0F1F819
:1025000082463C4904F06BFB814604F08CFD87B2A7
:1025100001F091F88246374904F061FB814604F0EE
:1025200082FD86B201F033F98246324904F057FB4E
:10253000814604F078FD1FFA80F820480078304981
:10254000087010204870002088700620C870002095
:10255000087104204871082088712812C8710D7212
:10256000381248728F723012C8720E734FEA2820E8
:10257000487381F80E800F21214800F04DFC04467D
:102580001F49CC732012087411211D48FDF7FAFE73
:10259000BDE8F087BF130020BE130020881500207F
:1025A000000800401A000020B2130020B0130020E1
:1025B000A0012142BC130020B8790008B713002005
:1025C0009114002092140020B0140020A8140020C0
:1025D000A01400200000F83F101400202814002050
:1025E0002C14002030140020181400202014002087
:1025F0002A140020000020410088C34000005940F8
:10260000881700201CB5FE4903C9CDE90001FD482B
:1026100000788DF800000621684600F0FDFB0446B6
:10262000E0B28DF8060020128DF8070008216846F8
:10263000FDF7A8FE1CBD1FB5F149183103C9CDE94E
:102640000201F04800788DF80800ED49203103C9F7
:10265000CDE90001EB4800788DF80000062102A8C2
:1026600000F0DAFB0446E0B28DF80E0020128DF87F
:102670000F000621684600F0CFFB0446E0B28DF85B
:10268000060020128DF807000020DF49087008219D
:1026900002A8FDF777FE322000F017FC1FBD1CB525
:1026A000D749383103C9CDE90001D64800788DF803
:1026B00000000621684600F0AFFB0446E0B28DF84A
:1026C000060020128DF8070008216846FDF75AFE23
:1026D0001CBD1CB5CA49843103C9CDE90001C948F4
:1026E00000788DF800000621684600F095FB04464E
:1026F000E0B28DF8060020128DF807000821684628
:10270000FDF740FE1CBD1CB5BD498C3103C9CDE9A8
:102710000001BC4800788DF800000621684600F0F2
:102720007BFB0446E0B28DF8060020128DF807000E
:102730000120B649087008216846FDF723FE1CBD3C
:102740002DE9F04F91B04FF0000BDA4600BF00BF0B
:1027500000BF00BF00BF16E1002425460026374613
:10276000AB4800EBCA0003C800221346CDE90801BC
:1027700004F0B2FC0CD9A6490AF1010001EBC0003B
:1027800003C800221346CDE9080104F0A5FC07D8D0
:102790000021A048CDE90A104FF00008814627E04B
:1027A0009B4800EBCA0003C8CDE908019A4800EB3A
:1027B000CA0003C8CDE90601DDE9082304F098FB4F
:1027C000CDE90A0192490AF1010001EBC00003C8FA
:1027D000CDE9080190490AF1010001EBC00003C8EE
:1027E000CDE90601DDE9082304F082FB8046894635
:1027F0008A4800EBCA0003C8CDE90801DDE90A23D5
:1028000004F004FBCDE90E0184490AF1010001EB5B
:10281000C00003C842464B46CDE9080104F0F6FA71
:10282000CDE90C017E4800EBCA0103C902460B4604
:10283000CDE90801DDE90E0104F066FC38D27848E4
:1028400000EBCA0103C9CDE90801764800EBCA00D4
:1028500003C8CDE90601DDE9082304F055FC27D2C1
:102860006F4800EBCA0103C9CDE902016D4800EBD6
:10287000CA0003C8CDE90001DDE9022304F0C0FA73
:10288000CDE90601664800EBCA0003C8CDE90201A4
:10289000DDE90E2304F0B7FACDE90401DDE90623F2
:1028A00004F026FBCDE9080104F0AEFF04460D4616
:1028B0005B490AF1010001EBC00003C802460B4668
:1028C000CDE90801DDE90C0104F01EFC42D25449B7
:1028D0000AF1010001EBC00003C8CDE9080151492C
:1028E0000AF1010001EBC00103C9CDE90601DDE9F0
:1028F000082304F009FC2DD249490AF1010001EB3B
:10290000C00003C8CDE9020146490AF1010001EB0C
:10291000C00003C8CDE90001DDE9022304F070FA2C
:10292000CDE906013E490AF1010001EBC00103C9EE
:10293000CDE90201DDE90C2304F065FACDE90401DB
:10294000DDE9062304F0D4FACDE9080104F05CFFC8
:1029500006460F4632463B4600204FF0804104F0C9
:1029600055FA22462B46CDE9080104F04CFA2E4ACE
:1029700002EBCB0203C20AF1020000F0FF0A0BF1E6
:10298000010000F0FF0BBBF1050FFFF6E5AE11B043
:10299000BDE8F08F70472DE9F0438BB081460225EA
:1029A000162205A9484602F06FFF002427E004EB39
:1029B00084002844001D05A9095C04EB8400284418
:1029C000C01C05AA105C41EA002001A941F82400BE
:1029D00004EB84002844801C05A9095C04EB8400F6
:1029E0002844401C105C41EA002601A830F824006D
:1029F00046EA004001A941F82400601CC4B215E079
:102A000024790008B7130020190000209514002035
:102A1000504600200000F03FB0450020A0460020B6
:102A2000F04600206045002000460020042CBEDB5C
:102A30000021B74A11605160029804F0E7FA074696
:102A40000022B44B04F054FAB34A03C2039804F0D2
:102A5000DDFA07460022AF4B04F04AFAAF4A03C240
:102A6000049804F0D3FA07460022AA4B04F040FA77
:102A7000AB4A03C205A8405D38B90022A94BA4495E
:102A800003C904F0C3F9A24A03C205A9681D085C82
:102A900038B90022A34BA04903C904F0B7F99E4AF4
:102AA00003C205A905F10A00085C38B900229D4B54
:102AB0009A4903C904F0AAF9984A03C205A905F185
:102AC0000F00085C38B90022964B954903C904F001
:102AD0009DF9934A03C20BB0BDE8F0832DE9F04F96
:102AE0008FB005460F4690460024A146A346002617
:102AF000A24600BF13E08C4951F824008B4904F032
:102B000037FB0AD2884850F824B005EB440188B25C
:102B100002220EA902F0B8FE05E0601C84B28448CF
:102B200000888442E7DB00BF9DF839009DF838102B
:102B300040EA012A002C11DD601E7B4951F82090EB
:102B4000611E05EB410188B202220EA902F09CFE33
:102B50009DF839009DF8381040EA0126304604F00F
:102B600055FACDE90C014946584604F032F8059073
:102B700004F09FFACDE90801AAEB060004F035FA4B
:102B8000CDE90401484604F094FA0022694BCDE9EE
:102B9000000104F038F9CDE90201DDE9042304F075
:102BA00035F9CDE90601DDE9082304F0A1F9CDE905
:102BB0000A01DDE90C2304F082F8C7E900010024D2
:102BC00013E0594951F824005B4904F0D1FA0AD2C4
:102BD000554850F824B005EB440188B202220EA9F2
:102BE00002F052FE05E0601C84B251480088844225
:102BF000E7DB00BF9DF839009DF8381040EA012A54
:102C0000002C11DD601E484951F82090611E05EB33
:102C1000410188B202220EA902F036FE9DF8390069
:102C20009DF8381040EA0126304604F0EFF9CDE96E
:102C30000C014946584603F0CCFF059004F039FAE0
:102C4000CDE90801AAEB060004F0CFF9CDE90401B3
:102C5000484604F02EFA0022384BCDE9000104F07A
:102C6000D2F8CDE90201DDE9042304F0CFF8CDE983
:102C70000601DDE9082304F03BF9CDE90A01DDE9AD
:102C80000C2304F01CF8C8E900010FB0BDE8F08F78
:102C900010B500202A4908702A48007860B9002041
:102CA0002849087001202849087002F0C8FC00BFBC
:102CB000234800780028FBD010BD08B5FFF7E8FFD7
:102CC00002226946012002F0DFFD9DF801009DF817
:102CD000001040EA21201D490860084600681C4990
:102CE00008601C4A1C494FF4C050FFF7F7FE1B4A0E
:102CF0001B494FF40050FFF7F1FE1A4A1A494FF4EE
:102D00008050FFF7EBFE4FF48070FFF744FE08BDE4
:102D1000981400200088C340A0140020A8140020AC
:102D2000B01400200000F0BFC023002000005C436E
:102D30003E14002000806B400080894300307140C9
:102D40004214002037140020381400202C140020D6
:102D500030140020401500203815002030150020C8
:102D600028150020501500204815002008B51C200B
:102D70008DF8000002208DF8010005208DF802007A
:102D800001208DF80300684600F09FFE08BD3EB5A7
:102D900004460121084601F02AFA601E80B2ADF80F
:102DA000040041F61F40ADF800000020ADF8060019
:102DB000ADF802008DF8080069464FF0804001F040
:102DC00045FD0121880702F063FB012211469007AF
:102DD00002F0B3F800214FF0804002F093F83EBDBE
:102DE00010B50446FFF7C2FF2046FFF7D0FF10BD25
:102DF00070B505460C4645F2555002F061FB284679
:102E000002F061FB204602F061FB02F067FB70BD3F
:102E100010B502F05EFB10BD70B502460C46FF25F2
:102E2000FF2309E012F8010B80EA05010648405C27
:102E300080EA03050548435C2000A4F10106B4B212
:102E4000F0D145EA032070BDF3790008F37A000859
:102E500010B56FF0040000F082FE2E4800682E4985
:102E6000B0FBF1F02D4908700846007800EB4001F6
:102E7000C1EBC0104FF6FF7101EAC000284908807D
:102E800010BD0146254A12784A434FF0E0235A61AB
:102E900000229A611A46126942F001021A6100BFCB
:102EA0004FF0E022106900F001021AB100F4803204
:102EB000002AF5D04FF0E022126922F001024FF013
:102EC000E0231A6100229A6170470146144A128871
:102ED0004A434FF0E0235A6100229A611A46126970
:102EE00042F001021A6100BF4FF0E022106900F0C9
:102EF00001021AB100F48032002AF5D04FF0E0222E
:102F0000126922F001024FF0E0231A6100229A6157
:102F1000704700000000002000127A0068150020B1
:102F20006A15002000B587B00121042001F052F994
:102F30000121480401F05BF90420ADF818001820C5
:102F40008DF81B0003208DF81A0006A9304800F008
:102F500085FE0820ADF8180004208DF81B0006A996
:102F60002B4800F07BFE2B4801F098F94FF4E1303C
:102F700002900020ADF81400ADF80C00ADF80E0082
:102F80000C20ADF812000020ADF8100002A9214875
:102F900001F0C7F940F225511E4801F069FB0122FA
:102FA00040F225511B4801F054FA26208DF8040008
:102FB00002208DF8050003208DF8060001208DF811
:102FC000070001A800F081FD0121124801F035FA47
:102FD00007B000BD70B504460D460BE000BF802170
:102FE0000C4801F005FB0028F9D014F8011B094832
:102FF00001F090FA2800A5F10101CDB2EED100BF99
:103000004021044801F0F4FA0028F9D070BD000016
:10301000000801400044004008B50121082001F0EB
:10302000D9F84FF48060ADF8000010208DF803004F
:1030300003208DF802006946054800F00FFE69463E
:10304000034800F00BFE08BD02490860704700000D
:10305000000C0140A881214208B50121082001F09F
:10306000B9F84FF47040ADF8000010208DF803005F
:1030700003208DF802006946F94800F0EFFD0120B9
:10308000F8490860F849C1F8BC01F64908390860F8
:10309000F549C1F8B40108BD10B5F148001D00683C
:1030A00020F07040EE49091D08600846006840F0B5
:1030B000405008600120EB49091D0860EA49C1F849
:1030C000B8010420FFF7DDFE0020E649091D086075
:1030D0000420FFF7D6FE0020E349C1F8B801042020
:1030E000FFF7CFFE10BD10B5DD48001D006820F4CD
:1030F0007000DB49091D08600846006840F4401074
:1031000008600120D749091F0860D749C1F8B001FC
:103110000420FFF7B6FE0020D249091F08600420F2
:10312000FFF7AFFE0020D049C1F8B0010420FFF73F
:10313000A8FE10BD10B5CA48001D006820F0704000
:10314000C749091D08600846006840F04050086003
:103150000020C4490860C449C1F8BC010420FFF73D
:1031600090FE0120BF490860FFF78BFE0120BE4999
:10317000C1F8BC010420FFF784FE10BD10B5B848AB
:10318000001D006820F47000B549091D086008465C
:10319000006840F4401008600020B2490839086017
:1031A000B149C1F8B4010420FFF76BFE0120AD491D
:1031B00008390860FFF765FE0120AB49C1F8B4018A
:1031C0000420FFF75EFE10BD10B50024A448001DCA
:1031D000006820F07040A249091D08600846006898
:1031E00040F00040086001209E49091D0860FFF77B
:1031F00048FE01209C49C1F8B801FFF742FE07E0F4
:10320000601CC4B2FA2C03DDFFF794FF012010BD4F
:1032100094487C3800680028F2D19249086000BFC9
:10322000F5E710B500248E48001D006820F47000FA
:103230008B49091D08600846006840F400000860DA
:1032400001208849091F0860FFF71BFE01208649FD
:10325000C1F8B001FFF715FE07E0601CC4B2FA2CFC
:1032600003DDFFF78BFF012010BD7E488438006826
:103270000028F2D17B490839086000BFF4E710B597
:103280000020784908607648001D006820F07040F2
:103290007349091D08600846006840F04050086006
:1032A00000207149C1F8BC011420FFF7EAFD01209C
:1032B0006C4908600220FFF7E4FD00206A49C1F86C
:1032C000B80110BD10B5002066490839086064488F
:1032D000001D006820F470006149091D086008465F
:1032E000006840F44010086000205F49C1F8B40154
:1032F0001420FFF7C6FD01205A4908390860022052
:10330000FFF7BFFD00205849C1F8B00110BD10B54E
:103310000020544908605248001D006820F07040A9
:103320004F49091D08600846006840F04050086099
:1033300001204D49C1F8BC010520FFF7A2FD012085
:10334000484908600520FFF79CFD00204649C1F868
:10335000B80110BD10B50020424908390860404846
:10336000001D006820F470003D49091D08600846F2
:10337000006840F44010086001203B49C1F8B401E6
:103380000520FFF77EFD0120364908390860052039
:10339000FFF777FD00203449C1F8B00110BD70B5CA
:1033A00004462F48001D006820F070402C49091D7C
:1033B00008600846006840F0405008600020294935
:1033C0000860002517E0E0092649091D086060062D
:1033D000040E0520FFF755FD01202349C1F8B8016F
:1033E0000520FFF74EFD00201E4908600520FFF76D
:1033F00048FD681CC5B2082DE5DB70BD70B50446FC
:103400001748001D006820F470001549091D086068
:103410000846006840F4401008600020114908394F
:103420000860002518E0E0090E49091F08606006E1
:10343000040E0520FFF725FD01200B49C1F8B0015E
:103440000520FFF71EFD0020064908390860052009
:10345000FFF717FD681CC5B2082DE4DB70BD000046
:10346000000C0140B88121420080214270B5054620
:103470000024F248006820F07040F04908600846D7
:10348000006840F000400860002616E00020EC498B
:1034900008600520FFF7F5FC0120EA49C1F8B801F2
:1034A0006006040EE6487C38006808B1601CC4B2AF
:1034B0000520FFF7E6FC701CC6B2082EE6DB15B946
:1034C000FFF725FF01E0FFF7DAFE204670BD70B57B
:1034D00005460024D948006820F47000D7490860E8
:1034E0000846006840F400000860002617E000204D
:1034F000D349083908600520FFF7C3FC0120D149F2
:10350000C1F8B0016006040ECD488438006808B1E7
:10351000601CC4B20520FFF7B4FC701CC6B2082EB4
:10352000E5DB15B9FFF716FF01E0FFF7CBFE2046FC
:1035300070BD10B50024FFF7AFFD8020FFF72FFF0F
:10354000FFF742FE0446FE20FFF729FFFFF73CFE8F
:103550000446FFF7EFFDFFF7C6FD8020FFF74EFFA3
:10356000FFF75FFE0446FE20FFF748FFFFF72CFE43
:103570000446FFF703FE204610BD10B5FFF76CFDB3
:10358000FFF7D7FF0446204610BD2DE9F04F87B066
:103590004FF0000AFFF780FD8020FFF700FFFFF7E4
:1035A00013FE8346F320FFF7FAFEFFF70DFE834676
:1035B00000BF6420FFF789FCFFF76EFD8120FFF755
:1035C000EEFE0AF101001FFA80FAFFF7FDFD8346C7
:1035D000BAF57A7F00D102E0BBF1000FE9D100BF5C
:1035E0000120FFF743FF05460120FFF73FFF064696
:1035F0000020FFF73BFFFFF79DFD46EA052929F074
:103600000309484603F0ECFC019003F052FD8E4A9A
:103610008E4BCDE9020103F0F9FB8D4A8D4BCDE9CC
:10362000040103F0EDFB074603F086FD0446204647
:1036300007B0BDE8F08F2DE9F04F87B04FF0000ADA
:10364000FFF751FD8020FFF7D9FEFFF7EAFD834623
:10365000F320FFF7D3FEFFF7E4FD834600BF6420AD
:10366000FFF733FCFFF73FFD8120FFF7C7FE0AF1AC
:1036700001001FFA80FAFFF7D4FD8346BAF57A7F7E
:1036800000D102E0BBF1000FE9D100BF0120FFF73C
:103690001EFF05460120FFF71AFF06460020FFF730
:1036A00016FFFFF76BFD46EA052929F00309484696
:1036B00003F096FC019003F0FCFC634A634BCDE9F8
:1036C000020103F0A3FB624A624BCDE9040103F05F
:1036D00097FB074603F030FD0446204607B0BDE8DF
:1036E000F08F2DE9F04F87B04FF0000AFFF7D4FCC0
:1036F0008020FFF754FEFFF767FD8346F520FFF7B4
:103700004EFEFFF761FD834600BF6420FFF7DDFB3F
:10371000FFF7C2FC8120FFF742FE0AF101001FFA09
:1037200080FAFFF751FD8346BAF1640F00D102E041
:10373000BBF1000FE9D100BF0120FFF797FE05465E
:103740000120FFF793FE06460020FFF78FFEFFF7EC
:10375000F1FC46EA052929F00309484603F040FC3C
:10376000019003F0A6FC3C4A3C4BCDE9020103F07A
:103770004DFB00223A4BCDE9040103F041FB074623
:1037800003F0DAFC0446204607B0BDE8F08F2DE9CF
:10379000F04F87B04FF0000AFFF7A5FC8020FFF73D
:1037A0002DFEFFF73EFD8346F520FFF727FEFFF7CE
:1037B00038FD834600BF6420FFF787FBFFF793FCCB
:1037C0008120FFF71BFE0AF101001FFA80FAFFF7C4
:1037D00028FD8346BAF1640F00D102E0BBF1000F6F
:1037E000E9D100BF0120FFF772FE05460120FFF777
:1037F0006EFE06460020FFF76AFEFFF7BFFC46EAB2
:10380000052929F00309484603F0EAFB019003F07B
:1038100050FC114A114BCDE9020103F0F7FA0022E6
:103820000F4BCDE9040103F0EBFA074603F084FCEB
:103830000446204607B0BDE8F08F0000040C0140AC
:10384000B881214200802142619FC6DE07F7653FB3
:10385000CDCCCCCCCC6C47407644CF7701405F3F99
:103860000000184008B501210C2000F0B3FC7020C6
:10387000ADF8000048208DF8030003208DF8020009
:1038800069467F4800F0EAF98020ADF8000010207A
:103890008DF8030003208DF802006946784800F097
:1038A000DDF98021764800F088FA0720ADF80000A5
:1038B00010208DF8030003208DF80200694671483E
:1038C00000F0CCF907216F4800F077FA08BD08B581
:1038D0000121042000F07EFC4FF4C850ADF8000038
:1038E00010208DF8030003208DF80200694664481B
:1038F00000F0B4F94FF4C851614800F05CFA0320BD
:10390000ADF8000048208DF8030003208DF8020078
:1039100069465B4800F0A2F908BD10B504460120D5
:1039200059490870002C3FD10846007801283BD146
:10393000002008700120554908605549C1F88001F0
:10394000544908605349103108600020091D08607F
:1039500000BF5048883800680028FAD00A20FFF7D6
:10396000B4FA00204B49103108604B49C1F8B0014E
:103970000520FFF7AAFA002046491031086001200F
:103980004549C1F8B00100BF42488C3800680028A2
:10399000FAD03220FFF799FA00203E491031086032
:1039A0003D49C1F8B0015FE0012C22D136480078D2
:1039B00001281ED1354908603549C1F880013549D3
:1039C000086000203349103108600120091D08609B
:1039D00000BF3048843800680028FAD03220FFF752
:1039E00074FA00202B49103108602B49C1F8B0014E
:1039F0003AE0022C38D10120244908602449C1F85A
:103A00008001244908602349103108600020091D05
:103A1000086000BF1F48883800680028FAD00A20D4
:103A2000FFF753FA00201B49103108601A49C1F80A
:103A3000B0010520FFF749FA00201649103108604F
:103A400001201549C1F8B00100BF12488C38006848
:103A50000028FAD09620FFF738FA00200D491031DF
:103A600008600D49C1F8B00110BD0A498C390968D8
:103A700001B9012007498839096801B90220704756
:103A800000080140000C01406C1500208481214297
:103A9000008021429C0121420000214206488047CB
:103AA00006480047FEE7FEE7FEE7FEE7FEE7FEE723
:103AB000FEE7FEE7FEE7FEE783020008ED000008F0
:103AC00031490143314A1160704770B5002100232C
:103AD0000F22C47804B32D4C246804F4E064C4F5C8
:103AE000E064210AC1F10403CA40447804FA03F1F6
:103AF0008478144021430901254C0678A1550478A7
:103B000004F01F050124AC4005786D11AD0005F1EE
:103B1000E025C5F8004109E0047804F01F05012400
:103B2000AC401C4D0678761145F8264070BD1A4A07
:103B30000A400243154B1B1F1A60704739B1134AE4
:103B4000121D12680243114B1B1D1A6006E00F4A3A
:103B5000121D126882430D4B1B1D1A60704704280A
:103B600008D14FF0E021096941F004014FF0E02253
:103B7000116107E04FF0E021096921F004014FF0E5
:103B8000E0221161704700000000FA050CED00E032
:103B900000E400E080E100E080FFFF1F10B5044674
:103BA000CC48844208D10121042000F02DFB0021E3
:103BB000042000F029FB46E0C748844208D10121D7
:103BC000082000F021FB0021082000F01DFB3AE056
:103BD000C248844208D10121102000F015FB0021C9
:103BE000102000F011FB2EE0BD48844208D10121D5
:103BF000202000F009FB0021202000F005FB22E03E
:103C0000B848844208D10121402000F0FDFA00218B
:103C1000402000F0F9FA16E0B348844208D10121AF
:103C2000802000F0F1FA0021802000F0EDFA0AE097
:103C3000AE48844207D10121801500F0E5FA002149
:103C4000A01500F0E1FA10BD10B50121084600F002
:103C5000DBFA0021012000F0D7FA10BD2DE9F04178
:103C6000024600250026002000230024002791F8AA
:103C700003C00CF00F0591F803C00CF0100CBCF160
:103C8000000F03D091F802C04CEA050591F800C07E
:103C9000BCF1000F31D0146800202BE04FF0010C74
:103CA0000CFA00F3B1F800C00CEA03069E4220D1E2
:103CB00083004FF00F0C0CFA03F7BC4305FA03FC2A
:103CC0004CEA040491F803C0BCF1280F06D14FF070
:103CD000010C0CFA00FCC2F814C00AE091F803C011
:103CE000BCF1480F05D14FF0010C0CFA00FCC2F8F2
:103CF00010C0401C0828D1D31460B1F800C0BCF13A
:103D0000FF0F34DD546800202EE000F1080C4FF066
:103D1000010808FA0CF3B1F800C00CEA03069E4251
:103D200021D183004FF00F0C0CFA03F7BC4305FAC6
:103D300003FC4CEA040491F803C0BCF1280F05D140
:103D400000F1080C08FA0CF8C2F8148091F803C0CE
:103D5000BCF1480F07D100F1080C4FF0010808FA38
:103D60000CF8C2F81080401C0828CED35460BDE87F
:103D7000F0814FF6FF710180022181700421C17032
:103D800070470246002093680B400BB1012000E011
:103D9000002070470146886880B2704702460020C4
:103DA000D3680B400BB1012000E0002070470146B2
:103DB000C86880B2704701617047416170470AB1BD
:103DC000016100E041617047C16070474FF480328B
:103DD0000A43826181618261826982697047024619
:103DE0000020434B18684FF68073184040EA0210D9
:103DF00008433F4B186070473E49C8617047F0B5B3
:103E00000A46002300240021002500F00046B6F1F8
:103E1000004F02D1364EF16901E0354E7168C0F3B2
:103E2000034583B200F44016B6F5401F08D121F0D7
:103E300070612F4E766826F070662D4F7E6012E01E
:103E400000F48016B6F5801F06D1032606FA05F4A5
:103E5000A14341F0706106E0460D360103FA06F613
:103E6000B14341F0706122B1460D360103FA06F606
:103E7000314300F00046B6F1004F02D11C4EF16113
:103E800001E01B4E7160F0BD30B500228B071C0FA6
:103E90000F2303FA04F2164B08338C1053F8243026
:103EA0009343134C08348D1044F8253023468C106E
:103EB00053F824308C07240F00FA04F423430C4CED
:103EC00008348D1044F8253030BD0A49DC310860D3
:103ED0007047000000080140000C01400010014044
:103EE0000014014000180140001C01400020014066
:103EF0000000014000002042DF48006840F001005F
:103F0000DD49086008464068DC490840DA494860F5
:103F100008460068DA490840D74908600846006842
:103F200020F4802008600846406820F4FE004860C5
:103F30004FF41F0088607047CF49096821F4803131
:103F4000CD4A11601146096821F480211160B0F555
:103F5000803F03D0B0F5802F0ED106E0C649096836
:103F600041F48031C44A116007E0C349096841F453
:103F7000A021C14A116000E000BF00BF704710B52A
:103F800001460022002300204A11012A02D1BA4C26
:103F9000236806E0022A02D1B74C236A01E0B64C3E
:103FA000636A01F01F02012494401C400CB10120FF
:103FB00000E0002010BD38B500200090002400254E
:103FC00000BF3120FFF7DBFF05460098401C009042
:103FD0000098B0F5A06F01D0002DF2D03120FFF78E
:103FE000CEFF08B1012400E00024204638BD014680
:103FF0000020A14A106820F0F80040EAC1001060DB
:104000007047A04908607047024600209A4B5868E4
:1040100020F47C1042EA01031843974B5860704724
:1040200098490866704701460020934A506820F07E
:1040300003000843506070478F48406800F00C0050
:104040007047014600208C4A506820F0F000084379
:104050005060704701460020874A506820F4E060B5
:1040600008435060704701460020834A506820F49E
:10407000605040EAC1005060704729B17E4A527AD0
:1040800002437D4B5A7204E07B4A527A82437A4B58
:104090005A7270477B49D83108607047014600204A
:1040A000754A506820F44040084350607047002132
:1040B000714A20321170704A82F82010012802D013
:1040C00004280AD104E001216B4A2032117005E076
:1040D0000521694A2032117000E000BF00BF70471F
:1040E0006949086070476449096A0143624A11627C
:1040F0007047654944390860704730B50021002297
:10410000002400235C4D6D6805F00C0121B10429E9
:1041100005D0082923D105E05C4D056022E05B4D08
:1041200005601FE0544D6D6805F47012524D6D68C6
:1041300005F48034022505EB92421CB9544D5543D9
:1041400005600BE04C4D6D6805F400351DB1504D18
:104150005543056002E04D4D5543056002E04B4D6F
:10416000056000BF00BF444D6D6805F0F00109090E
:10417000484D6B5C0568DD4045603F4D6D6805F45A
:10418000E061090A434D6B5C4568DD4085603A4D4E
:104190006D6805F46051C90A3E4D6B5C4568DD40B1
:1041A000C560354D6D6805F44041890B3A4D6B5C37
:1041B000C568B5FBF3F5056130BD29B12E4A5269DA
:1041C00002432D4B5A6104E02B4A526982432A4B29
:1041D0005A61704729B1284A92690243264B9A6175
:1041E00004E0254A92698243234B9A61704729B1C2
:1041F000214AD2690243204BDA6104E01E4AD269A7
:1042000082431D4BDA61704729B11B4AD2680243D1
:10421000194BDA6004E0184AD2688243164BDA6020
:10422000704729B1144A12690243134B1A6104E022
:10423000114A12698243104B1A6170471249403982
:10424000086070470F49C86470470B49C8717047D0
:104250000948406A40F0807007494862704701464B
:104260000020054A92680A400AB1012000E00020BF
:104270007047014988727047001002400000FFF843
:10428000FFFFF6FE000042428004424200127A0024
:1042900000093D006D1500207D15002010B5044675
:1042A000FB48844209D101218803FFF7ADFF0021BB
:1042B0004FF48040FFF7A8FF32E0F648844209D16E
:1042C00001214804FFF7ADFF00214FF40030FFF754
:1042D000A8FF25E0F048844209D101218804FFF7B6
:1042E000A0FF00214FF48020FFF79BFF18E0EB4870
:1042F000844209D10121C804FFF793FF00214FF444
:104300000020FFF78EFF0BE0E548844208D1012131
:104310000805FFF786FF00214FF48010FFF781FFAB
:1043200010BD2DE9F04786B005460E460024A24692
:1043300000BFA1460027B08900B100BF2F462C8ADC
:104340004CF6FF700440F08804432C82AC894EF692
:10435000F3100440B088318908437189084304434D
:10436000AC81AC8A4FF6FF400440B0890443AC8274
:1043700001A8FFF7C2FEC648874202D1DDF810A0AF
:1043800001E0DDF80CA0A88900F4004040B10AEB80
:10439000CA0000EB0A1031684900B0FBF1F807E0F1
:1043A0000AEBCA0000EB0A1031688900B0FBF1F893
:1043B0006420B8FBF0F004012009642101FB10899E
:1043C000A88900F4004040B1322000EBC900B0FBE6
:1043D000F1F000F00700044308E0322000EB091080
:1043E0006421B0FBF1F000F00F0004432C8106B013
:1043F000BDE8F0874FF41651016000218180C18033
:1044000001810C21418100218181704710B5024654
:104410000020108A4FF2FF0318400B884C8823437A
:104420008C882343CC8823431843108210BD00217D
:10443000018041808180C180704721B1828942F42E
:104440000052828104E082894DF6FF731A40828116
:104450007047F0B50346002400260025002040F6F2
:104460006A17B94200D100BF1846C1F3421401F0E7
:104470001F06012707FA06F5012C01D10C3004E0D4
:10448000022C01D1103000E014301AB107682F431C
:10449000076002E00768AF430760F0BD1AB1838A86
:1044A0000B43838202E0838A8B4383827047028AB4
:1044B0004FF6F0731A400282028A0A430282704762
:1044C00082894FF2FF731A40828182890A43828176
:1044D000704721B1828942F00202828104E0828920
:1044E0004FF6FD731A4082817047028A4FF6DF73E0
:1044F0001A400282028A0A430282704721B1028A6C
:1045000042F48042028204E0028A4BF6FF731A40B2
:1045100002827047C1F30802828070470146888892
:10452000C0F308007047818941F001018181704723
:10453000028BD2B20283028B42EA012202837047CD
:10454000028B02F47F420283028B0A43028370478C
:1045500021B1828A42F02002828204E0828A4FF6F0
:10456000DF731A408282704721B1828A42F01002C2
:10457000828204E0828A4FF6EF731A40828270478B
:1045800021B1828A42F00802828204E0828A4FF6D8
:10459000F7731A408282704721B1828942F4004247
:1045A000828103E08289C2F30E028281704721B1C9
:1045B000828A42F40062828204E0828A4FF2FF73B0
:1045C0001A4082827047828A4FF6FB731A408282B9
:1045D000828A0A438282704721B1828A42F00202B3
:1045E000828204E0828A4FF6FD731A40828270470D
:1045F00002460020B1F5007F00D100BF13880B40B8
:104600000BB1012000E00020704701F40072B2F508
:10461000007F00D100BFCA430280704770B50246D8
:10462000002400230025002040F66A16B14200D184
:1046300000BFC1F3421501F01F03012606FA03F380
:10464000012D02D19689334006E0022D02D1168A4F
:10465000334001E0968A33400C12012606FA04F436
:104660001688344013B10CB1012000E0002070BD69
:1046700010B50022002340F66A14A14200D100BF09
:104680000A1201249440A3B2DC43048010BD000050
:10469000003801400044004000480040004C004009
:1046A0000050004010B50446FE48844208D1012164
:1046B000C014FFF7A9FD0021E014FFF7A5FDC4E039
:1046C000B4F1804F08D101210846FFF7AAFD00216F
:1046D0000120FFF7A6FDB8E0F348844208D101218C
:1046E0000220FFF79EFD00210220FFF79AFDACE0BB
:1046F000EE48844208D101210420FFF792FD0021F9
:104700000420FFF78EFDA0E0E948844208D1012192
:104710000820FFF786FD00210820FFF782FD94E0C6
:10472000E448844208D101211020FFF77AFD0021DE
:104730001020FFF776FD88E0DF48844208D1012190
:104740002020FFF76EFD00212020FFF76AFD7CE0AE
:10475000DA48844208D101214014FFF755FD0021B9
:104760006014FFF751FD70E0D548844209D1012162
:10477000C804FFF749FD00214FF40020FFF744FD76
:1047800063E0D048844209D101210805FFF73CFDD0
:1047900000214FF48010FFF737FD56E0CA488442ED
:1047A00009D101214805FFF72FFD00214FF400102A
:1047B000FFF72AFD49E0C548844208D10121402085
:1047C000FFF72FFD00214020FFF72BFD3DE0C04803
:1047D000844208D101218020FFF723FD00218020A1
:1047E000FFF71FFD31E0BB48844208D1012180154D
:1047F000FFF717FD0021A015FFF713FD25E0B648D0
:10480000844209D101210804FFF7FEFC00214FF486
:104810008030FFF7F9FC18E0B048844209D101214B
:104820004804FFF7F1FC00214FF40030FFF7ECFCE7
:104830000BE0AB48844208D101218804FFF7E4FC77
:1048400000214FF48020FFF7DFFC10BD002202881A
:10485000944B98420ED0994B98420BD0B0F1804FB8
:1048600008D0914B984205D0904B984202D0904B83
:10487000984204D14FF68F731A404B881A438D4BE0
:10488000984207D08C4B984204D04FF6FF431A4011
:10489000CB881A4302808B8883850B880385814BE4
:1048A00098420BD0854B984208D08B4B984205D04C
:1048B0008A4B984202D08A4B984201D10B7A0386E8
:1048C00001238382704770B5002400220023058CE9
:1048D0004FF6FE7635400584028C8388048B4FF6B4
:1048E0008F752C40B51E2C400D882C43751E2A4018
:1048F0000D892A434D882A436A4DA8420BD06F4D3B
:10490000A84208D0744DA84205D0744DA84202D0E8
:10491000734DA84213D14FF6F7752A404D892A43AB
:104920004FF6FB752A408D882A434FF6FF652B40D2
:104930004FF6FF552B408D892B43CD892B43838028
:104940000483CD888586028470BD70B50024002262
:104950000023058C4FF6EF7635400584028C838862
:10496000048B48F6FF752C404FF6FF452C400D8810
:104970004FF6FF7606EA05252C434FF6DF752A40F1
:104980000D8906EA05152A434D8806EA05152A43CE
:10499000444DA84202D0494DA8421DD14FF67F7523
:1049A0002A404D894FF6FF7606EA05152A434FF651
:1049B000BF752A408D8806EA05152A434FF6FF3554
:1049C0002B404FF2FF752B408D8906EA85052B435E
:1049D000CD8906EA85052B4383800483CD8805872E
:1049E000028470BD70B5002400220023058C4FF6B0
:1049F000FF6635400584028C8388848B4FF68F7563
:104A00002C404FF6FC752C400D882C434FF6FF557B
:104A10002A400D894FF6FF7606EA05252A434D8880
:104A200006EA05252A431F4DA84202D0234DA8427D
:104A30001DD14FF2FF752A404D894FF6FF7606EAE9
:104A400005252A434FF6FF352A408D8806EA0525BD
:104A50002A434EF6FF752B404DF6FF752B408D898E
:104A600006EA05152B43CD8906EA05152B438380FD
:104A70008483CD888587028470BD70B500220023B1
:104A80000024058C4EF6FF7635400584038C84881F
:104A9000828B48F6FF752A404FF6FF452A400D8865
:104AA00020E00000002C014000040040000800400D
:104AB000000C004000100040001400400034014091
:104AC000004C0140005001400054014000180040DB
:104AD000001C004000200040004001400044014014
:104AE000004801404FF6FF7606EA05252A434DF6B9
:104AF000FF752B400D8906EA05352B434D8806EAE4
:104B000005352B43FA4DA84202D0FA4DA84208D1F0
:104B10004BF6FF752C408D894FF6FF7606EA85151A
:104B20002C4384808283CD88A0F84050038470BDDC
:104B3000828B4FF2FF331A408283828B4FF6FF73D2
:104B400003EA01231A4382837047F0B50C461546E9
:104B5000002200210026078C4EF6FF7C07EA0C0796
:104B60000784828B018C4FF6FF7707EA043640F604
:104B7000FF473A404FF6FF7707EA05273A434FF6DB
:104B8000FF7707EA03373A43D94FB8420ED0D94FDF
:104B9000B8420BD0B0F1804F08D0D74FB84205D003
:104BA000D64FB84202D0D64FB84206D14DF6FF7765
:104BB000394046F48057394305E047F6FF573940FE
:104BC00044F48057394382830184F0BD828B4FF6D1
:104BD000F3731A408283828B0A4382837047F0B555
:104BE0000C461546002200210026078C4FF6FF6C6C
:104BF00007EA0C070784828B018C4FF6FF7707EAE0
:104C000004264FF60C773A404FF6FF7707EA031772
:104C10002F433A43B64FB8420ED0B64FB8420BD0EE
:104C2000B0F1804F08D0B44FB84205D0B34FB8426E
:104C300002D0B34FB84206D14FF6FF57394046F481
:104C40008077394305E04FF2FF57394044F48077CD
:104C5000394382830184F0BD028B4FF2FF331A4047
:104C60000283028B4FF6FF7303EA01231A43028388
:104C70007047F0B50C461546002200210026078C2F
:104C80004FF6EF7C07EA0C070784028B018C4FF686
:104C9000FF7707EA041640F6FF473A404FF6FF77E2
:104CA00007EA03373A434FF6FF7707EA05273A4307
:104CB0008F4FB8420ED08F4FB8420BD0B0F1804F1B
:104CC00008D08D4FB84205D08C4FB84202D08C4FDF
:104CD000B84206D14FF6DF77394046F01007394326
:104CE00005E04FF65F77394044F0100739430283FF
:104CF0000184F0BD028B4FF6F3731A400283028BDE
:104D00000A4302837047F0B50C4615460022002185
:104D1000068C4FF6FE773E400684028B018C4FF6E0
:104D20000C7632407E1C06EA03162E433243704E48
:104D3000B0420ED06F4EB0420BD0B0F1804F08D0D1
:104D40006D4EB04205D06D4EB04202D06C4EB042B6
:104D500006D14FF6FD76314044F00106314305E0BF
:104D60004FF6F576314044F0010631430283018469
:104D7000F0BD70B505460C465D4885420ED05D48D5
:104D800085420BD0B5F1804F08D05B48854205D0F5
:104D90005A48854202D05A48854200D100E000BFFF
:104DA000208850B92389A28861882846FFF7ABFF85
:104DB000E1882846FFF79EFF25E0208804280AD1D5
:104DC0002389A28861882846FFF753FFE188284697
:104DD000FFF742FF17E0208808280AD12389A2881C
:104DE00061882846FFF7FBFEE1882846FFF7EEFEC4
:104DF00009E02389A28861882846FFF7A6FEE1889A
:104E00002846FFF795FE70BD2DE9F04105460C469A
:104E100000260127608808B9022600E00026A08845
:104E2000012801D1022700E001272088A0B92389A9
:104E3000A28861882846FFF766FFE1882846FFF7C9
:104E400059FF23893A4631462846FFF712FFE18889
:104E50002846FFF701FF13E02389A28861882846CE
:104E6000FFF707FFE1882846FFF7F6FE23893A4659
:104E700031462846FFF747FFE1882846FFF73AFF0B
:104E8000BDE8F0810A884B881A438B881A43CB8887
:104E90001A430B891A434B891A438B891A43A0F88A
:104EA000442070474FF6FF71818000210180C1804E
:104EB0004180017270470021018041808180C18062
:104EC000018141818181C181704700210180418040
:104ED000012181800021C180018170470021018072
:104EE00041808180C18001814181818170470000C2
:104EF000002C014000340140000400400008004044
:104F0000000C004021B1028842F00102028004E05E
:104F100002884FF6FE731A400280704731B1B0F834
:104F2000442042F40042A0F8442005E0B0F84420B8
:104F3000C2F30E02A0F8442070471AB183890B43D4
:104F4000838102E083898B4383817047818270472C
:104F500041EA0203A0F8483070471AB183890B4335
:104F6000838102E083898B438381704701894FF6F7
:104F7000F8721140018170470A46002101894FF6FD
:104F80008F73194011430181704730B504460D46B7
:104F900029462046FFF7F0FF208940F007002081D6
:104FA00030BD2DE9F04104460D4616461F46602DE2
:104FB00006D13B46012231462046FFF75AFE05E066
:104FC0003B46012231462046FFF79DFE29462046FA
:104FD000FFF7D2FF208940F007002081BDE8F08173
:104FE00030B50C4600210189C9B24FF6FF7505EABC
:104FF0000325154325432943018130BD2DE9F041A7
:1050000005460E4617469846002443463A46314622
:105010002846FFF7E5FF2C894FF6F870044044F06E
:1050200007044FF68F70044044F070042C81BDE8F3
:10503000F081F0B504460D4616461F463B46324603
:1050400029462046FFF7CCFF208940F4804020818C
:10505000F0BD0185828270470A46002101884FF623
:105060008F731940114301807047F0B50C46154607
:105070001E460021002200230189028B038C4FF67B
:10508000F877394021434FF6FC473A4040F2011788
:105090003A434FF6DD773B404FF6FF7707EA0617B6
:1050A0002F433B43018102830384F0BD0A46002164
:1050B000018B4FF68F7319401143018370470A46E5
:1050C0000021018B48F6FF7319404FF6FF7303EA86
:1050D00002231943018370470A460021818B4FF652
:1050E0008F7319401143818370470A460021818BD9
:1050F00048F6FF7319404FF6FF7303EA0223194382
:105100008183704721B1028842F08002028004E06E
:1051100002884FF67F731A400280704721B182885F
:1051200042F00402828004E082884FF6FB731A404A
:105130008280704721B1828842F00802828004E0B8
:1051400082884FF6F7731A408280704721B18288B7
:1051500042F00102828004E082884FF6FE731A401A
:10516000828070470A460021018B4FF6F773194081
:105170001143018370470A460021018B4FF2FF73F0
:1051800019404FF6FF7303EA022319430183704766
:105190000A460021818B4FF6F77319401143818332
:1051A00070470A460021818B4FF2FF7319404FF67A
:1051B000FF7303EA02231943818370470A460021E3
:1051C000018B4FF6FB7319401143018370470A4668
:1051D0000021018B4FF6FF3319404FF6FF7303EAAE
:1051E00002231943018370470A460021818B4FF641
:1051F000FB7319401143818370470A460021818B5C
:105200004FF6FF3319404FF6FF7303EA02231943A9
:10521000818370470A460021018B4FF67F73194046
:105220001143018370470A460021018BC1F30E012F
:105230004FF6FF7303EA02231943018370470A46BE
:105240000021818B4FF67F73194011438183704792
:105250000A460021818BC1F30E014FF6FF7303EA6A
:1052600002231943818370470A460021018C4FF6BF
:10527000FD7319401143018470470A460021018CD7
:105280004FF6F77319401143018470470A46002115
:10529000018C4FF6DF7319404FF6FF7303EA0213D8
:1052A0001943018470470A460021018C4FF67F7331
:1052B00019404FF6FF7303EA021319430184704744
:1052C0000A460021018C4FF6FF5319404FF6FF7339
:1052D00003EA02231943018470470A460021018C26
:1052E0004FF2FF7319404FF6FF7303EA022319438D
:1052F000018470470A460021018C4DF6FF73194066
:105300004FF6FF7303EA023319430184704730B547
:10531000002301248C40A3B2048C9C430484048C9D
:1053200002FA01F5ADB22C43048430BD30B5002340
:1053300004248C40A3B2048C9C430484048C02FAA1
:1053400001F5ADB22C43048430BD70B50346002096
:1053500000241846183001258D40ACB21D8CA543A1
:105360001D8409B1082909D100EB6100056825F009
:10537000700505600568154305600EE00D1FC5F357
:105380004E052844056825F4E045056005684FF69C
:10539000FF7606EA02263543056070BD21B102881A
:1053A00042F00202028004E002884FF6FD731A40C8
:1053B0000280704721B1028842F00402028004E0BA
:1053C00002884FF6FB731A400280704721B1828831
:1053D00042F08002828004E082884FF67F731A4098
:1053E0008280704702884FF6F7731A400280028865
:1053F0000A430280704782884FF68F731A4082807A
:1054000082880A438280704702894FF6F8731A40F7
:10541000028102890A430281704702894FF67F7335
:105420001A40028102890A430281704781847047D1
:1054300081857047818670470187704781877047F3
:10544000A0F84010704702884FF6FF431A400280D0
:1054500002880A43028070470146888E70470146E1
:10546000088F70470146888F70470146B1F84000A9
:1054700070470146888C70470146088D7047024688
:105480000020138A0B400BB1012000E00020704780
:10549000CA430282704730B5024600200023002430
:1054A000158A05EA0103958905EA010413B10CB1D7
:1054B000012000E0002030BDCA4302827047000096
:1054C0000E49086070470D49486070470B49886075
:1054D00070474AF6AA200949086070474CF6CC404C
:1054E00006490860704701460020044AD2680A4015
:1054F0000AB1012000E000207047000000300040A9
:105500007CB504466A4903C9CDE90001200E8DF837
:105510000100200C8DF80200200A8DF80300E0B293
:105520008DF8040005216846FDF776FC0546281233
:105530008DF80500E8B28DF8060007216846FDF7F2
:1055400049FD0A20FDF7C1FC7CBD08B559A00068E3
:10555000009004216846FDF73DFD0A20FDF7B5FCEB
:1055600008BD08B554A00068009003216846FDF707
:1055700031FD0A20FDF7A9FC08BDFEB506464C4AE0
:10558000083207CA8DE80700002404E0315D601C82
:105590000DF80010C4B2082CF8DB09216846FDF7AD
:1055A0003BFC054628128DF80900E8B28DF80A0088
:1055B0000B216846FDF70EFD0A20FDF786FCFEBDB7
:1055C00008B53EA00068009004216846FDF702FD82
:1055D0000A20FDF77AFC08BD38B50446344814307B
:1055E000006800908DF8014002216846FDF714FC28
:1055F000054628128DF80200E8B28DF80300042158
:105600006846FDF7E7FC0A20FDF75FFC38BD08B5EA
:105610002BA00068009004216846FDF7DBFC0A20FF
:10562000FDF753FC08BD08B526A0006800900321D3
:105630006846FDF7CFFC0A20FDF747FC08BD08B51A
:1056400021A00068009004216846FDF7C3FC0A20F1
:10565000FDF73BFC08BD08B51CA0006800900421C4
:105660006846FDF7B7FC0A20FDF72FFC08BD7CB5A6
:1056700004460F49183103C9CDE9000120128DF805
:105680000100E0B28DF8020003216846FDF7C4FB7B
:10569000054628128DF80300E8B28DF804000521B4
:1056A0006846FDF797FC0A20FDF70FFC7CBD000063
:1056B000F47B00083F696ED0537DFF003F305410EB
:1056C0003F3194D152BD3F003F537D503F4170D098
:1056D00010B500F017F910BD70B50446002600F0B3
:1056E00030F9A02000F0DFF900F06CF9201200F092
:1056F000DAF900F067F92546E11704EB11610912A8
:10570000A4EB0121C8B200F0CEF900F05BF900F083
:1057100018F9A12000F0C7F900F054F9002000F0BA
:10572000F0F9064600F02DF9304670BD70B504461C
:105730000E4600F006F9A02000F0B5F900F042F99D
:10574000201200F0B0F900F03DF92546E11704EB16
:1057500011610912A4EB0121C8B200F0A4F900F014
:1057600031F9304600F09FF900F02CF900F009F90A
:105770000520FDF7AAFB70BD2DE9F04105460E4658
:105780001746002409E0E20026FA02F2D1B22A19F3
:1057900090B2FFF7CBFF601CC4B2BC42F3DBBDE8A4
:1057A000F0812DE9F04107460C460026002509E06E
:1057B00036023919491B491E88B2FFF78DFF06448E
:1057C000681CC5B2A542F3DB3046BDE8F08110B5D8
:1057D000FF20FFF781FF0446552C01D1002010BDAA
:1057E0005521FF20FFF7A2FFFF20FFF775FF0446BA
:1057F000552C01D10020F2E70120F0E72DE9F04718
:105800000746884691463D46002432E014B105F033
:105810003F0010BB00F0B5F800260AE000F091F858
:10582000A02000F040F900F0CDF800B904E0701CB1
:1058300086B2B6F57A7FF1DB00BFB6F57A7F00D18C
:105840001EE0281200F02FF900F0BCF8E8B200F0DA
:105850002AF900F0B7F800B112E018F8040000F0DF
:1058600022F900F0AFF800B10AE0681C85B2601CB4
:1058700084B24C45CADB00F084F80120BDE8F08713
:1058800000F07FF80020F9E72DE9F04105460F46CA
:10589000164600F056F8A02000F005F900F092F846
:1058A00000B12AE0281200F0FEF800F08BF8E8B210
:1058B00000F0F9F800F086F800B11EE000F041F8C1
:1058C000A12000F0F0F800F07DF800B115E0002410
:1058D0000CE000F048F93855701EA04202D000F0EC
:1058E0009CF801E000F0BCF8601C84B2B442F0DB2C
:1058F00000F047F80120BDE8F08100F042F80020F8
:10590000F9E7000008B501210920FEF763FC012139
:10591000AA48FEF774FA3020ADF8000010208DF888
:10592000030003208DF802006946A548FEF796F9AA
:105930002021A348FEF73FFA1021A148FEF73BFAC9
:1059400008BD10B59E48006820F470209C4908608E
:105950000846006840F4403008600120994908601A
:105960009949C1F894010420FDF78BFA002095496C
:1059700008600420FDF785FA00209349C1F89401DE
:1059800010BD10B58E48006820F470208C49086066
:105990000846006840F44030086000208949091D2D
:1059A00008608949C1F890010420FDF76AFA0120D6
:1059B0008449091D08608449C1F890010420FDF75D
:1059C00060FA10BD10B500247D48006820F47020F6
:1059D0007B4908600846006840F400200860012008
:1059E00078490860FDF74DFA01207749C1F8940124
:1059F000FDF747FA07E0601CC4B2FA2C03DDFFF79D
:105A0000C0FF012010BD6F48803800680028F2D127
:105A10006C49091D086000BFF4E710B50020694912
:105A2000091D08606648006820F470206449086019
:105A30000846006840F44030086000206249C1F820
:105A400090010220FDF71DFA01205E49091D086042
:105A50000220FDF716FA00205B49C1F8940110BD41
:105A600010B500205749091D08605548006820F40A
:105A70007020534908600846006840F440300860D0
:105A800001205149C1F890010220FDF7FAF90120E7
:105A90004C49091D08600220FDF7F3F900204A492E
:105AA000C1F8940110BD70B504464548006820F463
:105AB0007020434908600846006840F440300860A0
:105AC00000204049091D0860002517E0E0093D4914
:105AD00008606006040E0220FDF7D3F901203A4960
